:020000040800F2
:1000000000A00020D1680008756700088367000819
:10001000896700088F6700089567000800000000E6
:100020000000000000000000000000009B670008C6
:10003000A967000800000000B7670008C56700084E
:100040002169000821690008216900082169000868
:100050002169000821690008216900082169000858
:100060002169000821690008216900082169000848
:100070002169000821690008216900082169000838
:100080002169000821690008216900082169000828
:100090002169000821690008216900082169000818
:1000A0002169000821690008216900082169000808
:1000B000E167000821690008216900081568000847
:1000C00029680008216900082169000821690008E1
:1000D00021690008016800082169000821690008F9
:1000E00021690008216900082169000821690008C8
:1000F00021690008216900082169000821690008B8
:10010000000000000000000000000000216900085D
:100110002169000821690008216900082169000897
:100120002169000821690008216900082169000887
:10013000216900082169000800000000000000009B
:1001400021690008216900082169000800000000F9
:10015000000000000000000000000000000000009F
:10016000000000000000000021690008216900086B
:1001700021690008000000000000000000000000ED
:080180000000000021690008E5
:1001880010B5054C237833B9044B13B10448AFF3C9
:1001980000800123237010BD04000020000000002F
:1001A8006C69000808B5034B1BB103490348AFF35A
:1001B800008008BD00000000080000206C690008ED
:1001C80080B500AF084A084B1B6843F01003136062
:1001D800032000F00BF9002000F008F806F0E8F919
:1001E8000023184680BD00BF0020024080B582B0C1
:1001F80000AF7860094B1B68094AA2FB03239B09DF
:10020800184600F028F9002279684FF0FF3000F016
:10021800F8F8002318460837BD4680BD00000020C6
:10022800D34D621080B400AF044B1B680133034AFE
:10023800136000BFBD465DF8047B70473C0000209A
:1002480080B400AF034B1B681846BD465DF8047BBD
:10025800704700BF3C00002080B485B000AF7860D4
:100268007B6803F00703FB600C4BDB68BB60BA6874
:100278004FF6FF031340BB60FB681A02BB681343C9
:1002880043F0BF6343F40033BB60044ABB68D360E8
:1002980000BF1437BD465DF8047B704700ED00E0F1
:1002A80080B400AF044BDB681B0A03F00703184651
:1002B800BD465DF8047B704700ED00E080B483B074
:1002C80000AF0346FB71094997F907305B09FA79D2
:1002D80002F01F02012000FA02F241F8232000BFB9
:1002E8000C37BD465DF8047B704700BF00E100E0B5
:1002F80080B483B000AF03463960FB7197F90730CB
:10030800002B0BDA0D49FB7903F00F03043B3A6825
:10031800D2B21201D2B20B441A7609E0084997F911
:1003280007303A68D2B21201D2B20B4483F80023E4
:1003380000BF0C37BD465DF8047B704700ED00E058
:1003480000E100E080B489B000AFF860B9607A607D
:10035800FB6803F00703FB61FB69C3F10703042B88
:1003680028BF0423BB61FB690433062B02D9FB6950
:10037800033B00E000237B610122BB6902FA03F31F
:100388005A1EBB681A407B699A4001217B6901FAB1
:1003980003F3591E7B680B40134318462437BD46A8
:1003A8005DF8047B7047000080B582B000AF7860CC
:1003B8007B68013BB3F1807F01D301230FE00A4A38
:1003C8007B68013B53600F214FF0FF30FFF790FF30
:1003D800054B00229A60044B07221A600023184636
:1003E8000837BD4680BD00BF10E000E080B582B090
:1003F80000AF78607868FFF72FFF00BF0837BD4669
:1004080080BD80B586B000AF0346B9607A60FB73E3
:1004180000237B61FFF744FF78617A68B9687869DF
:10042800FFF790FF024697F90F3011461846FFF77D
:100438005FFF00BF1837BD4680BD80B582B000AFF2
:100448000346FB7197F907301846FFF737FF00BFDF
:100458000837BD4680BD80B582B000AF7860786847
:10046800FFF7A2FF034618460837BD4680BD0000C7
:1004780080B483B000AF78607B68042B06D1094A4A
:10048800084B1B6843F00403136005E0054A054B5D
:100498001B6823F00403136000BF0C37BD465DF8EA
:1004A800047B704710E000E080B500AF00F002F870
:1004B80000BF80BD80B400AF00BFBD465DF8047BBF
:1004C800704780B584B000AF78600023FB737B6809
:1004D80093F82130022B05D07B6804229A6301230C
:1004E800FB7327E07B681B687A681268126822F041
:1004F8000E021A607B681B687A681268126822F01C
:1005080001021A607B68DB6B7A68126C012101FAC0
:1005180002F25A607B68012283F821207B6800225E
:1005280083F820207B685B6B002B03D07B685B6BB8
:1005380078689847FB7B18461037BD4680BD000099
:1005480080B487B000AF7860396000237B610023F6
:10055800FB6000233B6154E13B681A6801217B6919
:1005680001FA03F31340FB60FB68002B00F046819F
:100578003B685B68022B03D03B685B68122B23D176
:100588007B69DA087B68083253F822303B617B6963
:1005980003F007039B000F2202FA03F3DB433A69D7
:1005A80013403B613B681A697B6903F007039B00B2
:1005B80002FA03F33A6913433B617B69DA087B6803
:1005C8000832396943F822107B681B683B617B69F4
:1005D8005B00032202FA03F3DB433A6913403B61F1
:1005E8003B685B6803F003027B695B0002FA03F374
:1005F8003A6913433B617B683A691A603B685B68F8
:10060800012B0BD03B685B68022B07D03B685B680B
:10061800112B03D03B685B68122B30D17B689B6839
:100628003B617B695B00032202FA03F3DB433A690F
:1006380013403B613B68DA687B695B0002FA03F3AD
:100648003A6913433B617B683A699A607B685B68E7
:100658003B6101227B6902FA03F3DB433A691340E9
:100668003B613B685B681B0903F001027B6902FA86
:1006780003F33A6913433B617B683A695A607B68C4
:10068800DB683B617B695B00032202FA03F3DB430F
:100698003A6913403B613B689A687B695B0002FAE0
:1006A80003F33A6913433B617B683A69DA603B6854
:1006B8005B6803F08053002B00F0A080584A584B29
:1006C8009B6943F001039361554B9B6903F0010358
:1006D800BB60BB68534A7B699B08023352F82330DE
:1006E8003B617B6903F003039B000F2202FA03F3CB
:1006F800DB433A6913403B617B68B3F1904F19D0F3
:100708007B68494A934213D07B68484A93420DD08C
:100718007B68474A934207D07B68464A934201D197
:10072800042308E0052306E0032304E0022302E093
:10073800012300E000237A6902F00302920093404B
:100748003A6913433B6137497B699B0802333A692D
:1007580041F82320384B1B683B61FB68DB433A694F
:1007680013403B613B685B6803F48033002B03D084
:100778003A69FB6813433B612F4A3B6913602E4B70
:100788005B683B61FB68DB433A6913403B613B684C
:100798005B6803F40033002B03D03A69FB6813430A
:1007A8003B61254A3B695360234B9B683B61FB686F
:1007B800DB433A6913403B613B685B6803F4801391
:1007C800002B03D03A69FB6813433B611A4A3B6923
:1007D8009360194BDB683B61FB68DB433A69134064
:1007E8003B613B685B6803F40013002B03D03A6954
:1007F800FB6813433B61104A3B69D3607B69013353
:100808007B613B681A687B6922FA03F3002B7FF44B
:10081800A3AE00BF1C37BD465DF8047B704700BF20
:100828000010024000000140000400480008004891
:10083800000C0048001000480004014080B483B058
:1008480000AF78600B467B8013467B707B78002B6B
:1008580003D07A887B689A6102E07A887B689A621A
:1008680000BF0C37BD465DF8047B704780B483B089
:1008780000AF78600B467B807B685A697B885A405A
:100888007B685A6100BF0C37BD465DF8047B704732
:1008980080B582B000AF78607B68002B01D101235E
:1008A80080E07B6893F84130DBB2002B06D17B688F
:1008B800002283F84020786805F0A8F87B68242295
:1008C80083F841207B681B687A681268126822F0F6
:1008D80001021A607B681B687A68526822F07062AD
:1008E8001A617B681B687A681268926822F4004271
:1008F8009A607B68DB68012B07D17B681B687A6884
:10090800926842F400429A6006E07B681B687A6845
:10091800926842F404429A607B68DB68022B04D137
:100928007B681B684FF400625A607B681A687B68B2
:100938001B685B6843F0007343F4004353607B68B3
:100948001B687A681268D26822F40042DA607B6811
:100958001B687A6811697A68526911437A689269E2
:1009680012020A43DA607B681B687A68D1697A6880
:10097800126A0A431A607B681B687A6812681268F0
:1009880042F001021A607B6800225A647B682022C8
:1009980083F841207B6800221A637B68002283F871
:1009A8004220002318460837BD4680BD80B588B070
:1009B80002AFF8607A601A460B467B8113463B818A
:1009C80000237B61FB6893F84130DBB2202B54D1C4
:1009D800FB681B689B6903F40043B3F5004F01D122
:1009E80002234BE0FB6893F84030012B01D102232E
:1009F80044E0FB68012283F84020FB68212283F849
:100A08004120FB68102283F84220FB6800225A64C8
:100A1800FB687A685A62FB683A895A85FB68194A02
:100A2800DA62FB68184A5A63FB685B8D9BB2FF2B3E
:100A380006D9FB68FF221A854FF080737B6107E0B7
:100A4800FB685B8D9AB2FB681A854FF000737B6177
:100A5800FB681B8DDAB279894FF4005300937B69E8
:100A6800F86801F0B3F9FB68002283F840200121FF
:100A7800F86801F0D9F9002300E002231846183776
:100A8800BD4680BD0000FFFFA70D000880B588B0F7
:100A980002AFF860084611461A4603467B810B46AA
:100AA8003B811346FB8000233B6100237B61FB688D
:100AB80093F84130DBB2202B7DD13B6A002B02D06A
:100AC800BB8C002B01D1012376E0FB681B689B6976
:100AD80003F40043B3F5004F01D102236CE0FB6837
:100AE80093F84030012B01D1022365E0FB68012215
:100AF80083F84020FFF7A4FB3861FB68222283F8C3
:100B08004120FB68402283F84220FB6800225A6497
:100B1800FB683A6A5A62FB68BA8C5A85FB68284AAD
:100B2800DA62FB68274A5A63FB685B8D9BB2FF2B2E
:100B380006D9FB68FF221A854FF080737B6107E0B6
:100B4800FB685B8D9AB2FB681A854FF000737B6176
:100B5800F8883A8979893B690193192300930346F8
:100B6800F86800F031FC0346002B0FD0FB685B6C83
:100B7800042B05D1FB68002283F8402001231BE0E9
:100B8800FB68002283F84020032315E0FB681B8DD7
:100B9800DAB279894FF4105300937B69F86801F051
:100BA80015F9FB68002283F840200221F86801F05B
:100BB8003BF9002300E0022318461837BD4680BDE4
:100BC8000000FFFFA70D000880B584B000AF786073
:100BD8007B681B689B69FB607B681B681B68BB6044
:100BE8007B685B6B002B05D07B685B6BBA68F96828
:100BF8007868984700BF1037BD4680BD80B584B07F
:100C080000AF78607B681B689B69FB607B681B682A
:100C18001B68BB60FB6803F48073002B0FD0BB68B4
:100C280003F08003002B0AD07B685B6C43F0010261
:100C38007B685A647B681B684FF48072DA61FB68D2
:100C480003F48063002B0FD0BB6803F08003002BF4
:100C58000AD07B685B6C43F008027B685A647B6847
:100C68001B684FF48062DA61FB6803F40073002BA1
:100C78000FD0BB6803F08003002B0AD07B685B6C45
:100C880043F002027B685A647B681B684FF4007269
:100C9800DA617B685B6C03F00B03002B05D07B6883
:100CA8005B6C1946786800F0ABFE00BF1037BD4694
:100CB80080BD80B483B000AF786000BF0C37BD46FC
:100CC8005DF8047B704780B483B000AF786000BFE4
:100CD8000C37BD465DF8047B704780B483B000AF25
:100CE800786000BF0C37BD465DF8047B704780B460
:100CF80083B000AF786000BF0C37BD465DF8047B59
:100D0800704780B483B000AF78600B46FB70134621
:100D18003B8000BF0C37BD465DF8047B704780B44C
:100D280083B000AF786000BF0C37BD465DF8047B28
:100D3800704780B483B000AF786000BF0C37BD4601
:100D48005DF8047B704780B483B000AF786000BF63
:100D58000C37BD465DF8047B704780B483B000AFA4
:100D6800786000BF0C37BD465DF8047B704780B4DF
:100D780083B000AF786000BF0C37BD465DF8047BD8
:100D8800704780B483B000AF78607B6893F84130D7
:100D9800DBB218460C37BD465DF8047B704780B55A
:100DA80088B002AFF860B9607A600023FB82FB6804
:100DB80093F84030012B01D1022301E1FB680122A5
:100DC80083F84020BB6803F01003002B12D07B6827
:100DD80003F01003002B0DD0FB681B681022DA61AA
:100DE800FB685B6C43F00402FB685A64F86800F027
:100DF800C5FED2E0BB6803F00403002B1CD07B685F
:100E080003F00403002B17D0FB685B6A591CFA68CF
:100E18005162FA681268526AD2B21A70FB681B8D66
:100E2800013B9AB2FB681A85FB685B8D9BB2013B5C
:100E38009AB2FB685A85B0E0BB6803F00203002B46
:100E48001BD07B6803F00203002B16D0FB681A68DE
:100E5800FB685B6A581CF96848621B789362FB68F8
:100E68001B8D013B9AB2FB681A85FB685B8D9BB2B0
:100E7800013B9AB2FB685A858FE0BB6803F0800398
:100E8800002B5DD07B6803F04003002B58D0FB6833
:100E98001B8D002B42D1FB685B8D9BB2002B3DD094
:100EA800FB681B685B689BB2C3F30903FB82FB68A2
:100EB8005B8D9BB2FF2B0ED9FB68FF221A85FB685E
:100EC8001B8DDAB2F98A002300934FF08073F8681B
:100ED80000F07CFF33E0FB685B8D9AB2FB681A85F3
:100EE800FB68DB6A13F5803F0CD0FB681B8DDAB218
:100EF800FB68D86AF98A002300930346F86800F073
:100F080065FF1CE0FB681B8DDAB2F98A00230093A9
:100F18004FF00073F86800F059FF10E0FB681B6899
:100F28005B6803F00073B3F1007F03D0F86800F04A
:100F380033FB32E04021F86800F062FD2DE02CE040
:100F4800BB6803F04003002B27D07B6803F0400305
:100F5800002B22D0FB685B8D9BB2002B19D1FB685C
:100F68001B685B6803F00073B3F1007F15D0FB6862
:100F7800DB6A13F5803F08D1FB681B68FA681268C2
:100F8800526842F480425A6007E0F86800F004FBB7
:100F980003E04021F86800F033FDBB6803F020034C
:100FA800002B08D07B6803F02003002B03D0B9681E
:100FB800F86800F06BFBFB68002283F840200023F0
:100FC80018461837BD4680BD80B584B000AFF860BC
:100FD800B9607A60FB6893F84030012B01D1022395
:100FE800D8E0FB68012283F84020BB6803F01003B7
:100FF800002B45D07B6803F01003002B40D0FB6822
:101008005B8D9BB2002B2FD1FB68DB6AB3F1007FAD
:1010180004D0FB68DB6AB3F1007F0AD1FB6893F860
:101028004130DBB2282B04D1B968F86800F096FC8F
:1010380025E0FB68DB6A13F5803F10D0FB6893F866
:101048004130DBB2292B0AD1FB681B681022DA6118
:10105800F86800F093FDF86800F0DBFA0FE0FB6831
:101068001B681022DA6182E0FB681B681022DA61D3
:10107800FB685B6C43F00402FB685A6477E076E037
:10108800BB6803F00403002B2ED07B6803F0040335
:10109800002B29D0FB685B8D9BB2002B16D0FB6818
:1010A8005B6A591CFA685162FA681268526AD2B2CD
:1010B8001A70FB681B8D013B9AB2FB681A85FB68A6
:1010C8005B8D9BB2013B9AB2FB685A85FB685B8DCE
:1010D8009BB2002B4AD1FB68DB6A13F5803F45D0F1
:1010E800F86800F096FA41E0BB6803F00803002BAB
:1010F80009D07B6803F00803002B04D0B968F868AE
:1011080000F0C0F933E0BB6803F00203002B2ED0D7
:101118007B6803F00203002B29D0FB685B8D9BB230
:10112800002B16D0FB681A68FB685B6A581CF968C4
:1011380048621B789362FB685B8D9BB2013B9AB255
:10114800FB685A85FB681B8D013B9AB2FB681A85C0
:101158000DE0FB68DB6AB3F1807F03D0FB68DB6AD4
:10116800002B04D1F86800F054FA00E000BFBB6817
:1011780003F02003002B08D07B6803F02003002B2A
:1011880003D0B968F86800F019FBFB68002283F8FF
:101198004020002318461037BD4680BD80B588B072
:1011A80002AFF860B9607A6000237B8200237B611C
:1011B800FB6893F84030012B01D1022394E0FB68CF
:1011C800012283F84020BB6803F01003002B16D0DF
:1011D8007B6803F01003002B11D0FB681B681022FA
:1011E800DA61FB685B6C43F00402FB685A64122105
:1011F800F86800F019FEF86800F0C0FC6FE0BB6802
:1012080003F08003002B5CD07B6803F04003002BC5
:1012180057D0FB681B68FA681268126822F040020F
:101228001A60FB685B8D9BB2002B45D0FB681B687E
:101238005B689BB2C3F309037B82FB685B8D9BB23F
:10124800FF2B06D9FB68FF221A854FF080737B615C
:1012580007E0FB685B8D9AB2FB681A854FF0007354
:101268007B61FB681B8DDAB2798A002300937B6966
:10127800F86800F0ABFDFB685B8D9AB2FB681B8DCC
:10128800D31A9AB2FB685A85FB6893F84130DBB2EF
:10129800222B08D1FB681B68FA681268126842F4AE
:1012A80000421A601BE0FB681B68FA681268126843
:1012B80042F480421A6012E04021F86800F0A0FB76
:1012C8000DE0BB6803F02003002B08D07B6803F017
:1012D8002003002B03D0B968F86800F0D7F9FB6841
:1012E800002283F84020002318461837BD4680BDE9
:1012F80080B584B000AFF860B9607A60FB6893F895
:101308004030012B01D102235AE0FB68012283F807
:101318004020BB6803F01003002B2FD07B6803F03C
:101328001003002B2AD0FB6893F84130DBB2212B45
:1013380009D1FB689B6B1B685B68002B0CBF012302
:101348000023DBB208E0FB68DB6B1B685B68002BE3
:101358000CBF01230023DBB2002B04D0FB681B6801
:101368001022DA6127E0FB681B681022DA61FB684B
:101378005B6C43F00402FB685A641CE0BB6803F032
:101388000803002B09D07B6803F00803002B04D066
:10139800FB681B680822DA610DE0BB6803F02003D4
:1013A800002B08D07B6803F02003002B03D0B9681A
:1013B800F86800F003FAFB68002283F84020002355
:1013C80018461037BD4680BD80B586B002AFF860BC
:1013D800084611461A4603467B810B463B81134655
:1013E800FB80FB88DAB279894FF40053009300231D
:1013F800F86800F0EBFCFA69B969F86800F048FC95
:101408000346002B07D0FB685B6C042B01D101233A
:1014180034E0032332E0FB88012B05D1FB681B680D
:101428003A89D2B29A621BE0FB681B683A89120AB1
:1014380092B2D2B29A62FA69B969F86800F028FCE7
:101448000346002B07D0FB685B6C042B01D10123FA
:1014580014E0032312E0FB681B683A89D2B29A624F
:10146800FB690093BB6900224021F86800F0D6FBB5
:101478000346002B01D0032300E000231846103751
:10148800BD4680BD80B584B000AF78603960002368
:10149800FB730023BB8100237B8100233B817B6896
:1014A80093F84130DBB203F02803282B68D17B681E
:1014B8001B689B691B0CDBB203F00103FB737B68A1
:1014C8001B689B691B0C9BB203F0FE03BB817B6806
:1014D8001B689B689BB2C3F309037B817B681B680D
:1014E800DB689BB203F0FE033B817B68DB68022B61
:1014F80037D17B89DB099AB2BB8953409BB203F091
:101508000603002B1CD17B89BB817B689B6C5A1C12
:101518007B689A647B689B6C022B39D17B680022BC
:101528009A647B681B680822DA617B68002283F86A
:101538004020BA89FB7B19467868FFF7E2FB27E071
:101548003B89BB810421786800F0DCFC7B680022C1
:1015580083F84020BA89FB7B19467868FFF7D1FBEE
:1015680016E00421786800F0CDFC7B68002283F83F
:101578004020BA89FB7B19467868FFF7C2FB07E071
:101588007B681B680822DA617B68002283F84020A8
:1015980000BF1037BD4680BD80B582B000AF78600F
:1015A8007B68002283F842207B6893F84130DBB2E5
:1015B800212B15D17B68202283F841207B681122DA
:1015C8001A637B6800225A630121786800F09AFC4C
:1015D8007B68002283F840207868FFF76AFB14E0F4
:1015E8007B68202283F841207B6812221A637B687B
:1015F80000225A630221786800F084FC7B6800228C
:1016080083F840207868FFF75EFB00BF0837BD46C7
:1016180080BD80B582B000AF78607B68002283F817
:1016280042207B6893F84130DBB2292B12D17B68CA
:10163800282283F841207B6821221A6301217868D7
:1016480000F060FC7B68002283F840207868FFF790
:1016580044FB17E07B6893F84130DBB22A2B11D1A9
:101668007B68282283F841207B6822221A630221A2
:10167800786800F047FC7B68002283F8402078688F
:10168800FFF735FB00BF0837BD4680BD80B582B087
:1016980000AF786039607B681B682022DA617B685C
:1016A8001A687B681B685968424B0B4053607B681B
:1016B80000221A637B6800225A637B683E4ADA621A
:1016C8003B6803F01003002B09D07B681B681022CD
:1016D800DA617B685B6C43F004027B685A64786863
:1016E80000F04CFA0321786800F00CFC7B685B6C16
:1016F800002B05D17B6893F84130DBB2602B06D113
:101708007B685B6C1946786800F07AF94EE07B6874
:1017180093F84130DBB2212B21D17B68202283F85A
:1017280041207B6893F84230DBB2402B0BD17B68B9
:10173800002283F842207B68002283F840207868E2
:10174800FFF7F7FA32E07B68002283F842207B68D3
:10175800002283F840207868FFF7ABFA26E07B6820
:1017680093F84130DBB2222B20D17B68202283F80A
:1017780041207B6893F84230DBB2402B0BD17B6869
:10178800002283F842207B68002283F84020786892
:10179800FFF7D9FA0AE07B68002283F842207B68C9
:1017A800002283F840207868FFF78DFA00BF0837D9
:1017B800BD4680BD00E800FE0000FFFF80B582B096
:1017C80000AF786039607B681B682022DA617B682B
:1017D8001B680822DA610721786800F093FB7B68B0
:1017E8001B687A681268526842F400425A607B6843
:1017F8001A687B681B685968564B0B4053607868B9
:1018080000F0BCF97B681B681B6803F48043B3F5E0
:10181800804F07D07B681B681B6803F40043B3F54F
:10182800004F12D17B6893F84130DBB2212B05D1F0
:101838007B689B6B1B685B689BB204E07B68DB6B17
:101848001B685B689BB27A6853857B685B8D9BB22B
:10185800002B05D07B685B6C43F004027B685A64FC
:101868003B6803F00403002B20D07B685B6A591C9B
:101878007A6851627A681268526AD2B21A707B68C2
:101888001B8D002B12D07B681B8D013B9AB27B68A5
:101898001A857B685B8D9BB2013B9AB27B685A853F
:1018A8007B685B6C43F004027B685A647B680022A7
:1018B8001A637B68002283F842207B6800225A63FF
:1018C8007B685B6C002B10D07B685B6C1946786872
:1018D80000F096F87B6893F84130DBB2282B35D1BD
:1018E8003968786800F03AF830E07B68DB6A13F50D
:1018F800803F0ED07B68184ADA627B68202283F822
:1019080041207B68002283F840207868FFF707FAB7
:101918001CE07B6893F84130DBB2222B0BD17B684B
:10192800202283F841207B68002283F840207868D1
:10193800FFF7DDF90AE07B68202283F841207B6805
:10194800002283F840207868FFF7C7F900BF0837FE
:10195800BD4680BD00E800FE0000FFFF80B582B0F4
:1019680000AF786039607B68244ADA627B680022BD
:101978001A637B68202283F841207B68002283F861
:1019880042207B6800225A633B6803F00403002B63
:1019980020D07B685B6A591C7A6851627A68126841
:1019A800526AD2B21A707B681B8D002B12D07B68EA
:1019B8001B8D013B9AB27B681A857B685B8D9BB255
:1019C800013B9AB27B685A857B685B6C43F00402E2
:1019D8007B685A640721786800F094FA7B681B6872
:1019E8001022DA617B68002283F840207868FFF7CC
:1019F80096F900BF0837BD4680BD00BF0000FFFF55
:101A080080B582B000AF786039607B68002283F8C7
:101A180042207B68564ADA627B6800225A857B68D6
:101A28005A6C3B681A437B685A647B6893F8413068
:101A3800DBB2282B0BD07B6893F84130DBB2292B23
:101A480005D07B6893F84130DBB22A2B0ED10321F5
:101A5800786800F057FA7B68282283F841207B6871
:101A680000221A637B68434A5A6313E007217868A7
:101A780000F048FA7B6893F84130DBB2602B03D062
:101A88007B68202283F841207B6800221A637B68E8
:101A980000225A637B681B681B6803F48043B3F514
:101AA800804F1FD17B681B687A681268126822F41D
:101AB80080421A607B689B6B2F4A5A637B680022BE
:101AC80083F840207B689B6B1846FEF7FAFC0346B8
:101AD800002B48D07B689B6B5B6B7A68926B1046D7
:101AE800984740E07B681B681B6803F40043B3F524
:101AF800004F1FD17B681B687A681268126822F44D
:101B080000421A607B68DB6B1B4A5A637B680022C1
:101B180083F840207B68DB6B1846FEF7D2FC03464F
:101B2800002B20D07B68DB6B5B6B7A68D26B10462E
:101B3800984718E07B6893F84130DBB2602B0BD1F3
:101B48007B68202283F841207B68002283F84020AC
:101B58007868FFF70CF906E07B68002283F84020DC
:101B68007868FFF7FAF800BF0837BD4680BD00BFA8
:101B78000000FFFFD10F0008CD1B000880B483B020
:101B880000AF78607B681B689B6903F00203022B37
:101B980003D17B681B6800229A627B681B689B697B
:101BA80003F00103012B07D07B681B687A68126871
:101BB800926942F001029A6100BF0C37BD465DF898
:101BC800047B704780B584B000AF78607B685B6A3F
:101BD800FB60FB681B68FA681268526842F40042AE
:101BE8005A60FB689B6B00225A63FB68DB6B002220
:101BF8005A63FB6893F84130DBB2602B07D1FB686E
:101C0800202283F84120F868FFF7B1F802E0F8686D
:101C1800FFF7A3F800BF1037BD4680BD80B584B07C
:101C280000AFF860B9603B601346FB711CE03B688D
:101C3800B3F1FF3F18D03B68002B07D0FEF700FB3D
:101C48000246BB69D21A3B689A420DD9FB6820222A
:101C580083F84120FB68002283F84220FB680022B9
:101C680083F8402003230FE0FB681B689A69BB6870
:101C78001A40BB689A420CBF01230023DBB21A4604
:101C8800FB799A42D3D0002318461037BD4680BD51
:101C980080B584B000AFF860B9607A602CE07A68EB
:101CA800B968F86800F034F80346002B01D0012326
:101CB8002AE0BB68B3F1FF3F1ED0BB68002B07D0FA
:101CC800FEF7BEFA02467B68D21ABB689A4213D95D
:101CD800FB685B6C43F02002FB685A64FB682022B7
:101CE80083F84120FB68002283F84220FB68002229
:101CF80083F84020032307E0FB681B689B6903F017
:101D08000203022BCBD1002318461037BD4680BDF5
:101D180080B584B000AFF860B9607A60FB681B6872
:101D28009B6903F01003102B48D11CE0BB68B3F18A
:101D3800FF3F18D0BB68002B07D0FEF781FA024698
:101D48007B68D21ABB689A420DD9FB68202283F8B7
:101D58004120FB68002283F84220FB68002283F8B8
:101D6800402003232BE0FB681B689B6903F02003DA
:101D7800202BDBD1FB681B681022DA61FB681B682B
:101D88002022DA61F868FFF7F9FEFB681A68FB6839
:101D98001B6859680C4B0B405360FB6804225A645B
:101DA800FB68202283F84120FB68002283F8422048
:101DB800FB68002283F84020012300E00023184636
:101DC8001037BD4680BD00BF00E800FE80B487B074
:101DD80000AFF8607B600B467B8113467B72002363
:101DE8007B61FB681B685B687B617A690D4B1340FC
:101DF8007B617B89C3F309027B7A1B0403F47F03AD
:101E08001A437B681A433B6A13437A6913437B611D
:101E1800FB681B687A695A6000BF1C37BD465DF8CD
:101E2800047B7047009800FC80B485B000AF7860F0
:101E38000B467B800023FB607B685B6B2F4A9342D9
:101E480004D07B685B6B2E4A934224D17B8803F0D5
:101E58000403002B03D0FB6843F0B803FB607B88C6
:101E680003F01103112B03D1FB6843F09003FB60CF
:101E78007B8803F01203122B03D1FB6843F0200385
:101E8800FB607B8803F01203122B28D1FB6843F018
:101E98004003FB6023E07B8803F00403002B03D09E
:101EA800FB6843F0B803FB607B8803F00103002B59
:101EB80003D0FB6843F0F203FB607B8803F0020366
:101EC800002B03D0FB6843F0F403FB607B8803F02E
:101ED8001203122B03D1FB6843F02003FB607B68DD
:101EE8001B687A6812681168FA680A431A60002346
:101EF80018461437BD465DF8047B7047A5110008E5
:101F0800F912000880B485B000AF78600B467B807A
:101F18000023FB607B8803F00103002B0FD0FB68D4
:101F280043F04203FB607B6893F84130DBB203F077
:101F38002803282B03D0FB6843F0B003FB607B88A1
:101F480003F00203002B0FD0FB6843F04403FB604F
:101F58007B6893F84130DBB203F02803282B03D0C9
:101F6800FB6843F0B003FB607B8803F00403002B9D
:101F780003D0FB6843F0B803FB607B8803F01103D0
:101F8800112B03D1FB6843F09003FB607B8803F0BF
:101F98001203122B03D1FB6843F02003FB607B88FC
:101FA80003F01203122B03D1FB6843F04003FB60DC
:101FB8007B681B687A6812681168FA68D2430A401D
:101FC8001A60002318461437BD465DF8047B704735
:101FD80080B483B000AF786039607B6893F8413093
:101FE800DBB2202B38D17B6893F84030012B01D12C
:101FF800022332E07B68012283F840207B68242298
:1020080083F841207B681B687A681268126822F09E
:1020180001021A607B681B687A681268126822F4E9
:1020280080521A607B681B687A68126811683A687F
:102038000A431A607B681B687A681268126842F063
:1020480001021A607B68202283F841207B68002205
:1020580083F84020002300E0022318460C37BD46D1
:102068005DF8047B704780B485B000AF7860396054
:102078000023FB607B6893F84130DBB2202B39D119
:102088007B6893F84030012B01D1022333E07B6851
:10209800012283F840207B68242283F841207B6852
:1020A8001B687A681268126822F001021A607B685D
:1020B8001B681B68FB60FB6823F47063FB603B686C
:1020C8001B02FA681343FB607B681B68FA681A6096
:1020D8007B681B687A681268126842F001021A600D
:1020E8007B68202283F841207B68002283F8402007
:1020F800002300E0022318461437BD465DF8047B30
:102108007047000080B5ADF5007D00AF3B1D18603D
:102118000023C7F8F8313B1D1B681B6803F0010357
:10212800002B00F06E81B54B5B6803F00C03042BA9
:102138000CD0B24B5B6803F00C03082B5AD1AF4BA1
:102148005B6803F48033B3F5803F53D14FF4003319
:10215800C7F8F431D7F8F43193FAA3F3C7F8F0319C
:10216800D7F8F031B3FA83F3DBB25B09DBB243F0A3
:102178000103DBB2012B02D1A04B1B6815E04FF421
:102188000033C7F8EC31D7F8EC3193FAA3F3C7F86A
:10219800E8314FF40033C7F8E431D7F8E43193FA63
:1021A800A3F3C7F8E031954B5B6A4FF40032C7F8E8
:1021B800DC21D7F8DC2192FAA2F2C7F8D821D7F8A7
:1021C800D821B2FA82F252B242F0200252B2D2B20E
:1021D80002F01F02012101FA02F21340002B00F065
:1021E8000F813B1D1B685B68002B40F009810123B0
:1021F80000F06BBE3B1D1B685B68B3F5803F06D1E2
:102208007E4A7E4B1B6843F48033136030E03B1DED
:102218001B685B68002B0CD1784A784B1B6823F449
:1022280080331360754A754B1B6823F48023136051
:102238001EE03B1D1B685B68B3F5A02F0CD16F4AED
:102248006E4B1B6843F4802313606C4A6B4B1B680E
:1022580043F4803313600BE0684A684B1B6823F42F
:1022680080331360654A654B1B6823F48023136031
:102278006249624BDB6A23F00F023B1D1B689B68B7
:102288001343CB623B1D1B685B68002B5AD0FDF7DC
:10229800D7FFC7F8F8010AE0FDF7D2FF0246D7F8E2
:1022A800F831D31A642B02D9032300F00EBE4FF481
:1022B8000033C7F8D431D7F8D43193FAA3F3C7F869
:1022C800D031D7F8D031B3FA83F3DBB25B09DBB294
:1022D80043F00103DBB2012B02D1484B1B6815E028
:1022E8004FF40033C7F8CC31D7F8CC3193FAA3F3C5
:1022F800C7F8C8314FF40033C7F8C431D7F8C43130
:1023080093FAA3F3C7F8C0313C4B5B6A4FF4003231
:10231800C7F8BC21D7F8BC2192FAA2F2C7F8B821B5
:10232800D7F8B821B2FA82F252B242F0200252B281
:10233800D2B202F01F02012101FA02F21340002B6F
:10234800AAD05EE0FDF77CFFC7F8F8010AE0FDF7C8
:1023580077FF0246D7F8F831D31A642B02D9032342
:1023680000F0B3BD4FF40033C7F8B431D7F8B43137
:1023780093FAA3F3C7F8B031D7F8B031B3FA83F3BF
:10238800DBB25B09DBB243F00103DBB2012B02D104
:102398001A4B1B6815E04FF40033C7F8AC31D7F877
:1023A800AC3193FAA3F3C7F8A8314FF40033C7F858
:1023B800A431D7F8A43193FAA3F3C7F8A0310F4B8F
:1023C8005B6A4FF40032C7F89C21D7F89C2192FA37
:1023D800A2F2C7F89821D7F89821B2FA82F252B23D
:1023E80042F0200252B2D2B202F01F02012101FAD9
:1023F80002F21340002BAAD103E000BF00100240F4
:1024080000BF3B1D1B681B6803F00203002B00F094
:102418007081D04B5B6803F00C03002B0BD0CD4BC5
:102428005B6803F00C03082B6DD1CA4B5B6803F49F
:102438008033002B67D10223C7F89431D7F8943141
:1024480093FAA3F3C7F89031D7F89031B3FA83F32E
:10245800DBB25B09DBB243F00103DBB2012B02D133
:10246800BC4B1B6813E00223C7F88C31D7F88C31BA
:1024780093FAA3F3C7F888310223C7F88431D7F851
:10248800843193FAA3F3C7F88031B24B5B6A022216
:10249800C7F87C21D7F87C2192FAA2F2C7F87821F4
:1024A800D7F87821B2FA82F252B242F0200252B240
:1024B800D2B202F01F02012101FA02F21340002BEE
:1024C80007D03B1D1B681B69012B02D0012300F0BC
:1024D800FCBCA0489F4B1B6823F0F8023B1D1B68FF
:1024E8005969F823C7F87431D7F8743193FAA3F30C
:1024F800C7F87031D7F87031B3FA83F301FA03F3F0
:1025080013430360F5E03B1D1B681B69002B00F0BB
:1025180085800123C7F86C31D7F86C3193FAA3F39F
:10252800C7F86831D7F86831B3FA83F303F18453F5
:1025380003F584139B001A4601231360FDF780FE00
:10254800C7F8F8010AE0FDF77BFE0246D7F8F83134
:10255800D31A022B02D9032300F0B7BC0223C7F811
:102568006431D7F8643193FAA3F3C7F86031D7F828
:102578006031B3FA83F3DBB25B09DBB243F00103EA
:10258800DBB2012B02D1734B1B6813E00223C7F89F
:102598005C31D7F85C3193FAA3F3C7F858310223BA
:1025A800C7F85431D7F8543193FAA3F3C7F8503128
:1025B800684B5B6A0222C7F84C21D7F84C2192FA83
:1025C800A2F2C7F84821D7F84821B2FA82F252B2EB
:1025D80042F0200252B2D2B202F01F02012101FAE7
:1025E80002F21340002BAED05A485A4B1B6823F016
:1025F800F8023B1D1B685969F823C7F84431D7F81E
:10260800443193FAA3F3C7F84031D7F84031B3FA0D
:1026180083F301FA03F3134303606AE00123C7F865
:102628003C31D7F83C3193FAA3F3C7F83831D7F8DF
:102638003831B3FA83F303F1845303F584139B0011
:102648001A4600231360FDF7FBFDC7F8F8010AE0FE
:10265800FDF7F6FD0246D7F8F831D31A022B02D956
:10266800032300F032BC0223C7F83431D7F83431E1
:1026780093FAA3F3C7F83031D7F83031B3FA83F3BC
:10268800DBB25B09DBB243F00103DBB2012B02D101
:10269800304B1B6813E00223C7F82C31D7F82C31D4
:1026A80093FAA3F3C7F828310223C7F82431D7F8DF
:1026B800243193FAA3F3C7F82031264B5B6A022230
:1026C800C7F81C21D7F81C2192FAA2F2C7F81821E2
:1026D800D7F81821B2FA82F252B242F0200252B26E
:1026E800D2B202F01F02012101FA02F21340002BBC
:1026F800AED13B1D1B681B6803F00803002B00F0DC
:10270800D8803B1D1B689B69002B67D00123C7F845
:102718001431D7F8143193FAA3F3C7F81031D7F866
:102728001031B3FA83F31A460B4B13449B001A4635
:1027380001231360FDF784FDC7F8F8010EE0FDF7EB
:102748007FFD0246D7F8F831D31A022B06D90323A6
:10275800BBE300BF00100240208190100223C7F89D
:102768000C31D7F80C3193FAA3F3C7F808310223D8
:10277800C7F80431D7F8043193FAA3F207F5807348
:102788001A6007F1FC0302221A6007F1FC031B68B8
:1027980093FAA3F207F1F8031A60A54B5A6A07F1F6
:1027A800F4030221196007F1F4031B6893FAA3F1FB
:1027B80007F1F003196007F1F0031B68B3FA83F31C
:1027C8005BB243F060035BB2DBB203F01F0301218D
:1027D80001FA03F31340002BB1D06AE007F1EC03D0
:1027E80001221A6007F1EC031B6893FAA3F207F1C0
:1027F800E8031A6007F1E8031B68B3FA83F31A4683
:102808008C4B13449B001A4600231360FDF718FDF8
:10281800C7F8F80109E0FDF713FD0246D7F8F831CB
:10282800D31A022B01D903234FE307F1E403022251
:102838001A6007F1E4031B6893FAA3F207F1E003B7
:102848001A6007F1DC0302221A6007F1DC031B6837
:1028580093FAA3F207F1D8031A6007F1D40302220E
:102868001A6007F1D4031B6893FAA3F207F1D003A7
:102878001A606F4B5A6A07F1CC030221196007F1FD
:10288800CC031B6893FAA3F107F1C803196007F199
:10289800C8031B68B3FA83F35BB243F060035BB20F
:1028A800DBB203F01F03012101FA03F31340002BED
:1028B800B1D13B1D1B681B6803F00403002B00F01B
:1028C8005981002387F8FF31594BDB6903F08053A6
:1028D800002B12D1564A564BDB6943F08053D36123
:1028E800534BDB6903F0805207F10C031A6007F1C0
:1028F8000C031B68012387F8FF314F4B1B6803F457
:102908008073002B1AD14C4A4B4B1B6843F48073DD
:102918001360FDF795FCC7F8F80109E0FDF790FC96
:102928000246D7F8F831D31A642B01D90323CCE235
:10293800414B1B6803F48073002BEFD03B1D1B68D1
:10294800DB68012B06D13A4A394B1B6A43F0010375
:1029580013622FE03B1D1B68DB68002B0CD1344A47
:10296800334B1B6A23F001031362314A304B1B6A55
:1029780023F0040313621DE03B1D1B68DB68052B75
:102988000CD12B4A2A4B1B6A43F004031362284AD2
:10299800274B1B6A43F0010313620BE0244A244BC4
:1029A8001B6A23F001031362214A214B1B6A23F09F
:1029B800040313623B1D1B68DB68002B6BD0FDF71B
:1029C8003FFCC7F8F8010BE0FDF73AFC0246D7F8E0
:1029D800F831D31A41F28832934201D9032374E2C1
:1029E80007F1C40302221A6007F1C4031B6893FAB3
:1029F800A3F207F1C0031A6007F1BC0302221A60B0
:102A080007F1BC031B6893FAA3F207F1B8031A6035
:102A180007F1B8031B68B3FA83F3DBB25B09DBB2D7
:102A280043F00203DBB2022B08D1014B1B6A13E00F
:102A380000100240208190100070004007F1B4039C
:102A480002221A6007F1B4031B6893FAA3F207F194
:102A5800B0031A60BB4B5B6A07F1AC02022111603C
:102A680007F1AC02126892FAA2F107F1A80211600C
:102A780007F1A8021268B2FA82F252B242F040029A
:102A880052B2D2B202F01F02012101FA02F213403F
:102A9800002B99D064E0FDF7D3FBC7F8F8010BE0F1
:102AA800FDF7CEFB0246D7F8F831D31A41F2883247
:102AB800934201D9032308E207F1A40302221A6012
:102AC80007F1A4031B6893FAA3F207F1A0031A60A5
:102AD80007F19C0302221A6007F19C031B6893FA12
:102AE800A3F207F198031A6007F198031B68B3FA79
:102AF80083F3DBB25B09DBB243F00203DBB2022BE8
:102B080002D1904B1B6A0DE007F1940302221A6070
:102B180007F194031B6893FAA3F207F190031A6074
:102B2800884B5B6A07F18C020221116007F18C0265
:102B3800126892FAA2F107F18802116007F188027F
:102B48001268B2FA82F252B242F0400252B2D2B2E3
:102B580002F01F02012101FA02F21340002B9FD15B
:102B680097F8FF31012B05D1764A764BDB6923F0C4
:102B78008053D3613B1D1B68DB69002B00F0A481E7
:102B8800704B5B6803F00C03082B00F09B813B1D26
:102B98001B68DB69022B40F0138107F184034FF0B7
:102BA80080721A6007F184031B6893FAA3F207F195
:102BB80080031A6007F180031B68B3FA83F303F1FB
:102BC800845303F584139B001A4600231360FDF712
:102BD80037FBC7F8F80109E0FDF732FB0246D7F8E2
:102BE800F831D31A022B01D903236EE107F17C03D4
:102BF8004FF000721A6007F17C031B6893FAA3F286
:102C080007F178031A6007F178031B68B3FA83F3B6
:102C1800DBB25B09DBB243F00103DBB2012B02D16B
:102C2800484B1B681BE007F174034FF000721A60F1
:102C380007F174031B6893FAA3F207F170031A6093
:102C480007F16C034FF000721A6007F16C031B6800
:102C580093FAA3F207F168031A603A4B5B6A07F12B
:102C680064024FF00071116007F16402126892FA71
:102C7800A2F107F16002116007F160021268B2FA6E
:102C880082F252B242F0200252B2D2B202F01F02D5
:102C9800012101FA02F21340002B9DD12948294B4A
:102CA8005B6823F474123B1D1B68596A3B1D1B6843
:102CB8001B6A0B431343436007F15C034FF08072B8
:102CC8001A6007F15C031B6893FAA3F207F1580333
:102CD8001A6007F158031B68B3FA83F303F18453AE
:102CE80003F584139B001A4601231360FDF7A8FA25
:102CF800C7F8F80109E0FDF7A3FA0246D7F8F8315A
:102D0800D31A022B01D90323DFE007F154034FF054
:102D180000721A6007F154031B6893FAA3F207F1D3
:102D280050031A6007F150031B68B3FA83F3DBB250
:102D38005B09DBB243F00103DBB2012B04D1014B89
:102D48001B681DE00010024007F14C034FF00072B1
:102D58001A6007F14C031B6893FAA3F207F14803C2
:102D68001A6007F144034FF000721A6007F1440338
:102D78001B6893FAA3F207F140031A60554B5B6A8C
:102D880007F13C024FF00071116007F13C02126834
:102D980092FAA2F107F13802116007F138021268BD
:102DA800B2FA82F252B242F0200252B2D2B202F029
:102DB8001F02012101FA02F21340002B9BD083E08D
:102DC80007F134034FF080721A6007F134031B686F
:102DD80093FAA3F207F130031A6007F130031B6876
:102DE800B3FA83F303F1845303F584139B001A4663
:102DF80000231360FDF724FAC7F8F80109E0FDF78E
:102E08001FFA0246D7F8F831D31A022B01D9032347
:102E18005BE007F12C034FF000721A6007F12C03F6
:102E28001B6893FAA3F207F128031A6007F1280335
:102E38001B68B3FA83F3DBB25B09DBB243F001032F
:102E4800DBB2012B02D1234B1B681BE007F12403E3
:102E58004FF000721A6007F124031B6893FAA3F27B
:102E680007F120031A6007F11C034FF000721A6083
:102E780007F11C031B6893FAA3F207F118031A6001
:102E8800144B5B6A07F114024FF00071116007F1EF
:102E98001402126892FAA2F107F11002116007F108
:102EA80010021268B2FA82F252B242F0200252B212
:102EB800D2B202F01F02012101FA02F21340002BE4
:102EC8009DD101E0012300E00023184607F50077B3
:102ED800BD4680BD0010024080B59EB000AF78604E
:102EE800396000237B67A74B1B6803F007023B6828
:102EF8009A4210D2A349A34B1B6823F007023B68F0
:102F080013430B609F4B1B6803F007023B689A4210
:102F180001D0012375E17B681B6803F00203002BD5
:102F280008D09949984B5B6823F0F0027B689B684E
:102F380013434B607B681B6803F00103002B00F010
:102F480009817B685B68012B3DD14FF400333B67F7
:102F58003B6F93FAA3F3FB66FB6EB3FA83F3DBB222
:102F68005B09DBB243F00103DBB2012B02D1864BD4
:102F78001B680FE04FF40033BB66BB6E93FAA3F3F4
:102F88007B664FF400333B663B6E93FAA3F3FB6515
:102F98007D4B5B6A4FF40032BA65BA6D92FAA2F2C1
:102FA8007A657A6DB2FA82F252B242F0200252B2D7
:102FB800D2B202F01F02012101FA02F21340002BE3
:102FC8007DD101231DE17B685B68022B3DD14FF069
:102FD80000733B653B6D93FAA3F3FB64FB6CB3FA98
:102FE80083F3DBB25B09DBB243F00103DBB2012BF5
:102FF80002D1654B1B680FE04FF00073BB64BB6CDC
:1030080093FAA3F37B644FF000733B643B6C93FA31
:10301800A3F3FB635C4B5B6A4FF00072BA63BA6B55
:1030280092FAA2F27A637A6BB2FA82F252B242F060
:10303800200252B2D2B202F01F02012101FA02F2BA
:103048001340002B3BD10123DBE002233B633B6BA6
:1030580093FAA3F3FB62FB6AB3FA83F3DBB25B096F
:10306800DBB243F00103DBB2012B02D1464B1B68F4
:103078000DE00223BB62BB6A93FAA3F37B620223CF
:103088003B623B6A93FAA3F3FB613F4B5B6A022204
:10309800BA61BA6992FAA2F27A617A69B2FA82F2EC
:1030A80052B242F0200252B2D2B202F01F02012103
:1030B80001FA02F21340002B01D10123A1E03249A9
:1030C800314B5B6823F003027B685B6813434B60FA
:1030D800FDF7B6F878677B685B68012B12D10AE0C8
:1030E800FDF7AEF802467B6FD31A41F2883293425D
:1030F80001D9032385E0244B5B6803F00C03042B00
:10310800EED127E07B685B68022B1DD10AE0FDF752
:1031180097F802467B6FD31A41F28832934201D95D
:1031280003236EE0184B5B6803F00C03082BEED109
:1031380010E0FDF785F802467B6FD31A41F288321A
:10314800934201D903235CE00F4B5B6803F00C0347
:10315800002BEED10B4B1B6803F007023B689A4229
:1031680014D90849074B1B6823F007023B6813432F
:103178000B60044B1B6803F007023B689A4205D0BA
:1031880001233EE000200240001002407B681B68DB
:1031980003F00403002B08D01C491C4B5B6823F484
:1031A800E0627B68DB6813434B607B681B6803F055
:1031B8000803002B09D01549144B5B6823F46052AF
:1031C8007B681B69DB0013434B6000F025F8014660
:1031D8000E4B5B6803F0F002F0233B613B6993FA06
:1031E800A3F3FB60FB68B3FA83F322FA03F3084AFC
:1031F800D35C21FA03F3074A13600020FCF7F6FFBB
:10320800002318467837BD4680BD00BF0010024035
:10321800C46900080000002080B48BB000AF002310
:10322800FB610023BB6100237B6200237B610023D9
:103238003B62294B5B68FB61FB6903F00C03042BC1
:1032480002D0082B03D03CE0244B3B623CE0FB69F6
:1032580003F470124FF47013BB60BB6893FAA3F3C6
:103268007B607B68B3FA83F322FA03F31C4AD35CCE
:103278007B61194BDB6A03F00F020F233B613B694B
:1032880093FAA3F3FB60FB68B3FA83F322FA03F320
:10329800144AD35CBB61FB6903F48033002B08D06C
:1032A8000E4ABB69B2FBF3F37A6902FB03F37B6254
:1032B80004E07B690C4A02FB03F37B627B6A3B6296
:1032C80002E0064B3B6200BF3B6A18462C37BD46FE
:1032D8005DF8047B704700BF0010024000127A00BE
:1032E800A4690008B469000800093D0080B400AF73
:1032F800034B1B681846BD465DF8047B704700BF4A
:103308000000002080B582B000AFFFF7EFFF014654
:103318000B4B5B6803F4E0624FF4E0637B607B680F
:1033280093FAA3F33B603B68B3FA83F322FA03F3FF
:10333800044AD35C21FA03F318460837BD4680BD1A
:1033480000100240D469000880B582B000AFFFF7D2
:10335800CDFF01460B4B5B6803F460524FF460539A
:103368007B607B6893FAA3F33B603B68B3FA83F313
:1033780022FA03F3044AD35C21FA03F31846083708
:10338800BD4680BD00100240D469000880B592B0E7
:1033980000AF786000233B640023FB637B681B68F5
:1033A80003F48033002B00F0D680002387F84730E1
:1033B8004D4BDB6903F08053002B0ED14A4A4A4B30
:1033C800DB6943F08053D361474BDB6903F08053DB
:1033D800BB60BB68012387F84730444B1B6803F484
:1033E8008073002B18D1414A404B1B6843F480730B
:1033F8001360FCF725FF386408E0FCF721FF02465C
:103408003B6CD31A642B01D9032368E1374B1B6843
:1034180003F48073002BF0D0334B1B6A03F4407322
:10342800FB63FB6B002B00F083807B685B6803F415
:103438004072FB6B9A427BD02B4B1B6A23F4407380
:10344800FB634FF480333B633B6B93FAA3F3FB625C
:10345800FB6AB3FA83F31A46254B13449B001A46BA
:10346800012313604FF48033BB63BB6B93FAA3F360
:103478007B637B6BB3FA83F31A461D4B13449B00A3
:103488001A4600231360184AFB6B1362FB6B03F0A8
:103498000103002B4CD0FCF7D3FE38640AE0FCF79C
:1034A800CFFE02463B6CD31A41F28832934201D9CF
:1034B800032314E10223BB62BB6A93FAA3F37B6282
:1034C80002233B623B6A93FAA3F3FB61FB69B3FAFD
:1034D80083F3DBB25B09DBB243F00203DBB2022BFE
:1034E80008D1014B1B6A0DE000100240007000403B
:1034F800008190100223BB61BB6993FAA3F37B613F
:10350800794B5B6A02223A613A6992FAA2F2FA604E
:10351800FA68B2FA82F252B242F0400252B2D2B221
:1035280002F01F02012101FA02F21340002BB6D06B
:103538006D496D4B1B6A23F440727B685B681343CB
:103548000B6297F84730012B05D1674A664BDB6958
:1035580023F08053D3617B681B6803F00103002BC1
:1035680008D06149604B1B6B23F003027B689B68A2
:1035780013430B637B681B6803F00203002B08D01E
:103588005949594B1B6B23F440327B68DB68134362
:103598000B637B681B6803F00403002B08D05249B7
:1035A800514B1B6B23F440227B681B6913430B634D
:1035B8007B681B6803F02003002B08D04A494A4B5C
:1035C8001B6B23F010027B68DB6913430B637B687A
:1035D8001B6803F40033002B08D04349424B5B6857
:1035E80023F480027B689B6B13434B607B681B68EA
:1035F80003F04003002B08D03B493B4B1B6B23F0E7
:1036080020027B681B6A13430B637B681B6803F00B
:103618000803002B08D03449334B1B6B23F44012AA
:103628007B685B6913430B637B681B6803F01003BB
:10363800002B08D02C492C4B1B6B23F440027B68D1
:103648009B6913430B637B681B6803F40073002BAF
:1036580008D02549244B5B6823F400027B68DB6AA9
:1036680013434B607B681B6803F08003002B08D072
:103678001D491D4BDB6A23F4F8727B685B6A1343B0
:10368800CB627B681B6803F48073002B08D0164953
:10369800154BDB6A23F478527B689B6A1343CB6231
:1036A8007B681B6803F48053002B08D00E490E4B2F
:1036B8001B6B23F480727B681B6B13430B637B6863
:1036C8001B6803F40053002B08D00749064B1B6BFB
:1036D80023F400727B685B6B13430B63002318466B
:1036E8004837BD4680BD00BF0010024080B584B099
:1036F80000AF78607B68002B01D1012382E07B68F2
:1037080000229A627B6893F85D30DBB2002B06D109
:103718007B68002283F85C20786802F0C3FF7B682E
:10372800022283F85D207B681B687A681268126839
:1037380022F040021A607B68DB68B3F5E06F02D9BB
:103748000023FB6002E04FF48053FB607B68DB687A
:10375800B3F5706F07D07B68DB68B3F5E06F02D014
:103768007B6800229A627B681B6B002B0BD17B68FD
:10377800DB68B3F5E06F03D97B6802221A6302E0C5
:103788007B6801221A637B681B687A6851687A68CB
:10379800926811437A68126911437A685269114331
:1037A8007A68926902F4007211437A68D269114307
:1037B8007A68126A11437A68926A0A431A607B68C7
:1037C8001B687A689269120C02F004017A68526ADE
:1037D80011437A68526B11437A68D2681143FA68C8
:1037E8000A435A607B681B687A681268D26922F4B7
:1037F8000062DA617B6800221A667B68012283F81E
:103808005D20002318461037BD4680BD80B588B0BE
:1038180000AFF860B9603B601346FB800023BB61D2
:103828000023FB77FB6893F85C30012B01D102235E
:103838003EE1FB68012283F85C20FCF701FDB861DA
:10384800FB6893F85D30DBB2012B02D00223FB77D3
:1038580025E1BB68002B02D0FB88002B02D1012395
:10386800FB771CE1FB68032283F85D20FB680022DC
:103878001A66FB68BA689A63FB68FA889A87FB68D5
:10388800FA88DA87FB6800221A64FB680022A3F82A
:103898004420FB680022A3F84620FB6800221A6532
:1038A800FB680022DA64FB689B68B3F5004F07D118
:1038B800FB681B68FA681268126842F480421A6052
:1038C800FB681B681B6803F04003402B07D0FB68AC
:1038D8001B68FA681268126842F040021A60FB68B6
:1038E800DB68B3F5E06F47D9FB685B68002B04D051
:1038F800FB68DB8F9BB2012B38D1FB681B68BA6869
:103908001288DA60BB680233BB60FB68DB8F9BB24E
:10391800013B9AB2FB68DA8728E0FB681B689B6862
:1039280003F00203022B0FD1FB681B68BA681288E8
:10393800DA60BB680233BB60FB68DB8F9BB2013B7C
:103948009AB2FB68DA8711E03B68002B0BD03B6822
:10395800B3F1FF3F0AD0FCF773FC0246BB69D21AE9
:103968003B689A4202D30323FB7798E0FB68DB8F1E
:103978009BB2002BD1D172E0FB685B68002B04D0AE
:10398800FB68DB8F9BB2012B64D1FB68DB8F9BB29A
:10399800012B0FD9FB681B68BA681288DA60BB680C
:1039A8000233BB60FB68DB8F9BB2023B9AB2FB68B9
:1039B800DA874FE0FB681B6803F10C02BB68591CEF
:1039C800B9601B781370FB68DB8F9BB2013B9AB21E
:1039D800FB68DA873EE0FB681B689B6803F002031C
:1039E800022B25D1FB68DB8F9BB2012B0FD9FB681B
:1039F8001B68BA681288DA60BB680233BB60FB6870
:103A0800DB8F9BB2023B9AB2FB68DA8722E0FB6845
:103A18001B6803F10C02BB68591CB9601B78137052
:103A2800FB68DB8F9BB2013B9AB2FB68DA8711E037
:103A38003B68002B0BD03B68B3F1FF3F0AD0FCF783
:103A4800FFFB0246BB69D21A3B689A4202D30323A2
:103A5800FB7724E0FB68DB8F9BB2002BBBD1BA69F4
:103A68003968F86800F086FC0346002B02D0FB6832
:103A780020221A66FB689B68002B0AD100237B6111
:103A8800FB681B68DB687B61FB681B689B687B6164
:103A98007B69FB681B6E002B01D00123FB77FB6859
:103AA800012283F85D20FB68002283F85C20FB7FFD
:103AB80018462037BD4680BD80B588B002AFF86093
:103AC800B9603B601346FB8000233B610023FB7514
:103AD800FB685B68B3F5827F12D1FB689B68002B9B
:103AE8000ED1FB68042283F85D20FA883B680093B6
:103AF8001346BA68B968F86800F0FFF80346F8E0BA
:103B0800FB6893F85C30012B01D10223F1E0FB68DC
:103B1800012283F85C20FCF793FB3861FB6893F87B
:103B28005D30DBB2012B02D00223FB75D8E0BB6805
:103B3800002B02D0FB88002B02D10123FB75CFE0BC
:103B4800FB68042283F85D20FB6800221A66FB6884
:103B5800BA681A64FB68FA88A3F84420FB68FA88F4
:103B6800A3F84620FB6800229A63FB6800229A8724
:103B7800FB680022DA87FB680022DA64FB6800220F
:103B88001A65FB68DB68B3F5E06F08D9FB681B684A
:103B9800FA681268526822F480525A6007E0FB689B
:103BA8001B68FA681268526842F480525A60FB68CF
:103BB8009B68B3F5004F07D1FB681B68FA68126869
:103BC800126822F480421A60FB681B681B6803F0C5
:103BD8004003402B07D0FB681B68FA68126812681C
:103BE80042F040021A60FB68DB68B3F5E06F60D80A
:103BF8002CE0FB681B689B6803F00103012B13D1C1
:103C0800FB681B680C331B78DAB2BB681A70BB6898
:103C18000133BB60FB68B3F846309BB2013B9AB2F4
:103C2800FB68A3F8462011E03B68002B0BD03B68EB
:103C3800B3F1FF3F0AD0FCF703FB02463B69D21AF7
:103C48003B689A4202D30323FB7549E0FB68B3F84B
:103C580046309BB2002BCCD131E0FB681B689B68D7
:103C680003F00103012B12D1FB681B68DB689AB2D1
:103C7800BB681A80BB680233BB60FB68B3F8463088
:103C88009BB2013B9AB2FB68A3F8462011E03B685F
:103C9800002B0BD03B68B3F1FF3F0AD0FCF7D0FAFA
:103CA80002463B69D21A3B689A4202D30323FB754A
:103CB80016E0FB68B3F846309BB2002BCDD13A69C9
:103CC8003968F86800F0FEFA0346002B02D0FB685A
:103CD80020221A66FB681B6E002B01D00123FB759E
:103CE800FB68012283F85D20FB68002283F85C20D2
:103CF800FB7D18461837BD4680BD80B58AB000AF39
:103D0800F860B9607A607B800023FB610023BB61A7
:103D180000237B6101237B62002387F82330FB6843
:103D280093F85C30012B01D10223E1E1FB68012209
:103D380083F85C20FCF784FA7861FB6893F85D30BF
:103D4800DBB2FB61FB685B68BB61FB69012B0ED0D2
:103D5800BB69B3F5827F06D1FB689B68002B02D153
:103D6800FB69042B03D0022387F82330B6E1BB6834
:103D7800002B05D07B68002B02D07B88002B03D159
:103D8800012387F82330A9E1FB6893F85D30DBB2A3
:103D9800042B03D0FB68052283F85D20FB68002212
:103DA8001A66FB687A681A64FB687A88A3F8462062
:103DB800FB687A88A3F84420FB68BA689A63FB68B2
:103DC8007A88DA87FB687A889A87FB680022DA643F
:103DD800FB6800221A65FB68DB68B3F5E06F05D85D
:103DE800FB68B3F846309BB2012B08D9FB681B6807
:103DF800FA681268526822F480525A6007E0FB6839
:103E08001B68FA681268526842F480525A60FB686C
:103E18001B681B6803F04003402B07D0FB681B6836
:103E2800FA681268126842F040021A60FB68DB68A0
:103E3800B3F5E06F75D9FB685B68002B04D0FB68AD
:103E4800DB8F9BB2012B60D1FB681B68BA681288B4
:103E5800DA60BB680233BB60FB68DB8F9BB2013B57
:103E68009AB2FB68DA8750E07B6A002B1CD0FB68AB
:103E7800DB8F9BB2002B17D0FB681B689B6803F095
:103E88000203022B10D1FB681B68BA681288DA603B
:103E9800BB680233BB60FB68DB8F9BB2013B9AB205
:103EA800FB68DA8700237B62FB68B3F846309BB275
:103EB800002B1AD0FB681B689B6803F00103012BD9
:103EC80013D1FB681B68DB689AB27B681A807B6831
:103ED80002337B60FB68B3F846309BB2013B9AB271
:103EE800FB68A3F8462001237B623B6BB3F1FF3FDD
:103EF8000BD0FCF7A5F902467B69D21A3B6B9A42B4
:103F080003D3032387F82330E8E0FB68DB8F9BB2F9
:103F1800002BA9D1FB68B3F846309BB2002BA3D184
:103F2800CAE0FB685B68002B05D0FB68DB8F9BB29F
:103F3800012B40F0B480FB68DB8F9BB2012B0FD9BB
:103F4800FB681B68BA681288DA60BB680233BB601A
:103F5800FB68DB8F9BB2023B9AB2FB68DA879EE074
:103F6800FB681B6803F10C02BB68591CB9601B781D
:103F78001370FB68DB8F9BB2013B9AB2FB68DA8750
:103F88008DE07B6A002B32D0FB68DB8F9BB2002B65
:103F98002DD0FB681B689B6803F00203022B26D117
:103FA800FB68DB8F9BB2012B0FD9FB681B68BA68D3
:103FB8001288DA60BB680233BB60FB68DB8F9BB298
:103FC800023B9AB2FB68DA870FE0FB681B6803F1D3
:103FD8000C02BB68591CB9601B781370FB68DB8F37
:103FE8009BB2013B9AB2FB68DA8700237B62FB68CD
:103FF800B3F846309BB2002B41D0FB681B689B6826
:1040080003F00103012B3AD1FB68B3F846309BB2A9
:10401800012B20D9FB681B68DB689AB27B681A8081
:104028007B6802337B60FB68B3F846309BB2023B87
:104038009AB2FB68A3F84620FB68B3F846309BB2F7
:10404800012B1AD8FB681B68FA681268526842F498
:1040580080525A6011E07B685A1C7A60FA681268CC
:104068000C321278D2B21A70FB68B3F846309BB2A1
:10407800013B9AB2FB68A3F8462001237B623B6BA5
:10408800B3F1FF3F0BD0FCF7DBF802467B69D21A8D
:104098003B6B9A4203D3032387F823301EE0FB6867
:1040A800DB8F9BB2002B7FF46CAFFB68B3F8463014
:1040B8009BB2002B7FF465AF7A69396BF86800F022
:1040C80059F90346002B02D0FB6820221A66FB68C8
:1040D8001B6E002B02D0012387F82330FB680122D6
:1040E80083F85D20FB68002283F85C2097F8233072
:1040F80018462837BD4680BD80B483B000AF7860CD
:104108007B6893F85D30DBB218460C37BD465DF826
:10411800047B704780B584B000AFF860B9607A60FE
:104128003B604CE03B68B3F1FF3F48D03B68002B55
:1041380007D0FCF785F80246BB69D21A3B689A4259
:104148003DD3FB681B68FA681268526822F0E002E7
:104158005A60FB685B68B3F5827F11D1FB689B6886
:10416800B3F5004F04D0FB689B68B3F5806F07D1A7
:10417800FB681B68FA681268126822F040021A602D
:10418800FB689B6AB3F5005F0FD1FB681B68FA6890
:104198001268126822F400521A60FB681B68FA68F9
:1041A8001268126842F400521A60FB68012283F810
:1041B8005D20FB68002283F85C2003230EE0FB6887
:1041C8001B689A68BB681A40BB689A4201D10122F1
:1041D80000E000227B689A42A4D1002318461037D9
:1041E800BD4680BD80B586B000AFF860B9607A6022
:1041F8003B605AE0BB68B3F5C06F09D17B68002B00
:1042080006D1FB681B680C331B78DBB2FB75FB7DA2
:104218003B68B3F1FF3F48D03B68002B07D0FCF761
:104228000FF802463B6AD21A3B689A423DD3FB68B4
:104238001B68FA681268526822F0E0025A60FB684C
:104248005B68B3F5827F11D1FB689B68B3F5004FBB
:1042580004D0FB689B68B3F5806F07D1FB681B68C7
:10426800FA681268126822F040021A60FB689B6ABA
:10427800B3F5005F0FD1FB681B68FA681268126813
:1042880022F400521A60FB681B68FA681268126808
:1042980042F400521A60FB68012283F85D20FB6833
:1042A800002283F85C20032308E0FB681B689A68F7
:1042B800BB681A407B689A429CD10023184618377D
:1042C800BD4680BD80B586B002AFF860B9607A603F
:1042D800FB685B68B3F5827F11D1FB689B68B3F517
:1042E800004F04D0FB689B68B3F5806F07D1FB686B
:1042F8001B68FA681268126822F040021A607B682C
:104308000093BB6800228021F868FFF703FF03468B
:10431800002B07D0FB681B6E43F02002FB681A666F
:10432800032323E0FB685B68B3F5827F1DD1FB683C
:104338009B68B3F5004F04D0FB689B68B3F5806FAA
:1043480013D17B680093BB6800224FF4C061F86802
:10435800FFF748FF0346002B07D0FB681B6E43F0AE
:104368002002FB681A66032300E000231846103772
:10437800BD4680BD80B586B002AFF860B9607A608E
:104388007B680093BB6800224FF4C051F868FFF7C0
:1043980029FF0346002B07D0FB681B6E43F0200261
:1043A800FB681A66032327E07B680093BB6800223A
:1043B8008021F868FFF7AEFE0346002B07D0FB68A4
:1043C8001B6E43F02002FB681A66032314E07B6827
:1043D8000093BB6800224FF4C061F868FFF702FF42
:1043E8000346002B07D0FB681B6E43F02002FB68D6
:1043F8001A66032300E0002318461037BD4680BD27
:1044080080B582B000AF78607B68002B01D10123B2
:104418001DE07B6893F83D30DBB2002B06D17B684A
:10442800002283F83C20786802F07CF97B6802223D
:1044380083F83D207B681A687B6804331946104668
:1044480000F060FA7B68012283F83D2000231846BB
:104458000837BD4680BD80B483B000AF78607B6804
:104468001B687A681268D26842F00102DA607B68D9
:104478001B687A681268126842F001021A60002309
:1044880018460C37BD465DF8047B704780B582B08E
:1044980000AF78607B681B681B6903F00203022B7E
:1044A80022D17B681B68DB6803F00203022B1BD157
:1044B8007B681B686FF002021A617B6801221A7719
:1044C8007B681B689B6903F00303002B03D07868A3
:1044D80000F0FAF905E0786800F0ECF9786800F087
:1044E800FDF97B6800221A777B681B681B6903F05B
:1044F8000403042B22D17B681B68DB6803F00403E8
:10450800042B1BD17B681B686FF004021A617B685F
:1045180002221A777B681B689B6903F44073002B9F
:1045280003D0786800F0D0F905E0786800F0C2F9A7
:10453800786800F0D3F97B6800221A777B681B68DB
:104548001B6903F00803082B22D17B681B68DB6812
:1045580003F00803082B1BD17B681B686FF0080267
:104568001A617B6804221A777B681B68DB6903F091
:104578000303002B03D0786800F0A6F905E07868FB
:1045880000F098F9786800F0A9F97B6800221A779A
:104598007B681B681B6903F01003102B22D17B6812
:1045A8001B68DB6803F01003102B1BD17B681B68AA
:1045B8006FF010021A617B6808221A777B681B6803
:1045C800DB6903F44073002B03D0786800F07CF9B2
:1045D80005E0786800F06EF9786800F07FF97B688C
:1045E80000221A777B681B681B6903F00103012B03
:1045F8000ED17B681B68DB6803F00103012B07D130
:104608007B681B686FF001021A61786800F040F956
:104618007B681B681B6903F08003802B0ED17B68C5
:104628001B68DB6803F08003802B07D17B681B685D
:104638006FF080021A61786800F0FEFA7B681B68E8
:104648001B6903F48073B3F5807F0ED17B681B6808
:10465800DB6803F08003802B07D17B681B686FF44D
:1046680080721A61786800F0F1FA7B681B681B6930
:1046780003F04003402B0ED17B681B68DB6803F016
:104688004003402B07D17B681B686FF040021A611A
:10469800786800F02DF97B681B681B6903F020031C
:1046A800202B0ED17B681B68DB6803F02003202BCE
:1046B80007D17B681B686FF020021A61786800F0E8
:1046C800B1FA00BF0837BD4680BD80B584B000AFE1
:1046D800786039600023FB607B6893F83C30012BDD
:1046E80001D10223CFE07B68012283F83C207B685C
:1046F800022283F83D207B681B689B68FB60FB688F
:1047080023F4803323F07703FB60FB6823F47F43B3
:10471800FB607B681B68FA689A603B681B68402BE3
:104728007CD0402B0FD8102B00F08F80102B03D893
:10473800002B00F083809DE0202B00F08D80302B33
:1047480000F0918096E0702B18D0702B04D8502B75
:1047580044D0602B52D08DE0B3F5805F03D0B3F521
:10476800005F28D086E07B681A687B681B689B68B6
:1047780023F4803323F0070393607BE07B68186899
:104788003B6899683B685A683B68DB6800F0D3F976
:104798007B681B689B68FB60FB6823F4803323F00D
:1047A8007703FB60FB6843F07703FB607B681B685B
:1047B800FA689A605EE07B6818683B6899683B68AD
:1047C8005A683B68DB6800F0B6F97B681B687A6852
:1047D8001268926842F480429A604BE07B681868DD
:1047E8003B6859683B68DB681A4600F01DF97B682E
:1047F8001B685021184600F07EF93BE07B6818687A
:104808003B6859683B68DB681A4600F040F97B68EA
:104818001B686021184600F06EF92BE07B68186869
:104828003B6859683B68DB681A4600F0FDF87B680E
:104838001B684021184600F05EF91BE07B681B6886
:104848000021184600F057F914E07B681B68102116
:10485800184600F050F90DE07B681B6820211846C7
:1048680000F049F906E07B681B683021184600F023
:1048780042F900BF7B68012283F83D207B68002253
:1048880083F83C20002318461037BD4680BD000041
:1048980080B483B000AF7860054B1B680133044ACD
:1048A800136000BF0C37BD465DF8047B704700BF3E
:1048B8008800002080B483B000AF786000BF0C3758
:1048C800BD465DF8047B704780B483B000AF786064
:1048D80000BF0C37BD465DF8047B704780B483B0D9
:1048E80000AF786000BF0C37BD465DF8047B7047A9
:1048F80080B483B000AF786000BF0C37BD465DF868
:10490800047B704780B485B000AF786039600023BD
:10491800FB607B681B68FB607B683C4A93420FD056
:104928007B68B3F1804F0BD07B68394A934207D03C
:104938007B68384A934203D07B68374A934208D150
:10494800FB6823F07003FB603B685B68FA681343FD
:10495800FB607B682D4A93421BD07B68B3F1804F84
:1049680017D07B682A4A934213D07B68294A93421E
:104978000FD07B68284A93420BD07B68274A934222
:1049880007D07B68264A934203D07B68254A934226
:1049980008D1FB6823F44073FB603B68DB68FA6866
:1049A8001343FB60FB6823F080023B685B69134399
:1049B800FB607B68FA681A603B689A687B68DA6211
:1049C8003B681A687B689A627B68104A93420FD0EA
:1049D8007B68114A93420BD07B68104A934207D0F8
:1049E8007B680F4A934203D07B680E4A934203D1F7
:1049F8003B681A697B681A637B6801225A6100BFA9
:104A08001437BD465DF8047B704700BF002C014099
:104A1800000400400008004000340140004001400C
:104A2800004401400048014080B487B000AFF860FE
:104A3800B9607A6000237B6100233B61FB681B6AD5
:104A48003B61FB681B6A23F00102FB681A62FB6882
:104A58009B697B617B6923F0F0037B617B681B01A9
:104A68007A6913437B613B6923F00A033B613A6926
:104A7800BB6813433B61FB687A699A61FB683A69D2
:104A88001A6200BF1C37BD465DF8047B704780B4CE
:104A980087B000AFF860B9607A6000237B610023BB
:104AA8003B61FB681B6A23F01002FB681A62FB6813
:104AB8009B697B61FB681B6A3B617B6923F47043DC
:104AC8007B617B681B037A6913437B613B6923F035
:104AD800A0033B61BB681B013A6913433B61FB6858
:104AE8007A699A61FB683A691A6200BF1C37BD4649
:104AF8005DF8047B704780B485B000AF78600B46E2
:104B08007B800023FB607B689B68FB60FB6823F06D
:104B18007003FB607B8843F007039BB21A46FB686F
:104B28001343FB607B68FA689A6000BF1437BD4680
:104B38005DF8047B704780B487B000AFF860B96057
:104B48007A603B6000237B61FB689B687B617B69C3
:104B580023F47F437B613B681A027B681A43BB6876
:104B680013437A6913437B61FB687A699A6000BFD3
:104B78001C37BD465DF8047B7047000080B485B0E3
:104B880000AF786039607B6893F83C30012B01D125
:104B980002233DE07B68012283F83C207B681B6888
:104BA8005B68FB607B681B689B68BB607B681B68F5
:104BB8001A4A934204D07B681B68194A934208D169
:104BC800FB6823F47003FB603B685B68FA68134377
:104BD800FB60FB6823F07003FB603B681B68FA68A6
:104BE8001343FB60BB6823F08003BB603B689B6892
:104BF800BA681343BB607B681B68FA685A607B68B5
:104C08001B68BA689A607B68002283F83C200023FE
:104C180018461437BD465DF8047B7047002C0140E8
:104C28000034014080B483B000AF786000BF0C3717
:104C3800BD465DF8047B704780B483B000AF7860F0
:104C480000BF0C37BD465DF8047B704780B483B065
:104C580000AF786000BF0C37BD465DF8047B704735
:104C680080B582B000AF78607B68002B01D101234A
:104C780043E07B6893F86930DBB2002B06D17B6890
:104C8800002283F86820786801F0D4FC7B6824222D
:104C980083F869207B681B687A681268126822F0BA
:104CA80001021A60786800F01DFA0346012B01D151
:104CB800012322E07B685B6A002B02D0786800F051
:104CC8000FFC7B681B687A681268526822F490426D
:104CD8005A607B681B687A681268926822F02A0218
:104CE8009A607B681B687A681268126842F0010251
:104CF8001A60786800F096FC034618460837BD46E7
:104D080080BD80B485B000AFF860B9601346FB8001
:104D1800FB6893F86930DBB2202B32D1BB68002BDB
:104D280002D0FB88002B01D101232BE0FB6893F80C
:104D38006830012B01D1022324E0FB68012283F8AB
:104D48006820FB68BA68DA64FB68FA88A3F8502020
:104D5800FB68FA88A3F85220FB680022DA66FB6831
:104D6800212283F86920FB68002283F86820FB6809
:104D78001B68FA681268126842F080021A60002301
:104D880000E0022318461437BD465DF8047B7047DF
:104D980080B485B000AFF860B9601346FB80FB684B
:104DA80093F86A30DBB2202B5FD1BB68002B02D0AE
:104DB800FB88002B01D1012358E0FB6893F8683089
:104DC800012B01D1022351E0FB68012283F86820FE
:104DD800FB68BA685A65FB68FA88A3F85820FB682C
:104DE800FA88A3F85A20FB689B68B3F5805F0ED158
:104DF800FB681B69002B05D1FB6840F2FF12A3F882
:104E08005C2015E0FB68FF22A3F85C2010E0FB683B
:104E18009B68002B0CD1FB681B69002B04D1FB6835
:104E2800FF22A3F85C2003E0FB687F22A3F85C2044
:104E3800FB680022DA66FB68222283F86A20FB6896
:104E4800002283F86820FB681B68FA681268926879
:104E580042F001029A60FB681B68FA6812681268DF
:104E680042F490721A60002300E0022318461437B7
:104E7800BD465DF8047B704780B586B000AF7860AA
:104E88007B681B68DB697B617B681B681B683B610F
:104E98007B6903F00F03FB60FB68002B0DD17B6976
:104EA80003F02003002B08D03B6903F02003002BFC
:104EB80003D0786800F0EDFCFAE07B681B689B681B
:104EC800BB60FB68002B00F0BA80BB6803F00103ED
:104ED800002B05D13B6903F49073002B00F0AF80E1
:104EE8007B6903F00103002B0ED03B6903F4807348
:104EF800002B09D07B681B6801221A627B68DB6E75
:104F080043F001027B68DA667B6903F00203002B39
:104F18000ED0BB6803F00103002B09D07B681B6827
:104F280002221A627B68DB6E43F004027B68DA6651
:104F38007B6903F00403002B0ED0BB6803F0010368
:104F4800002B09D07B681B6804221A627B68DB6E21
:104F580043F002027B68DA667B6903F00803002BE2
:104F680013D03B6903F02003002B04D1BB6803F086
:104F78000103002B09D07B681B6808221A627B6832
:104F8800DB6E43F008027B68DA667B68DB6E002B19
:104F980000F08D807B6903F02003002B07D03B696C
:104FA80003F02003002B02D0786800F072FC7B68C5
:104FB800DB6E03F00803002B06D17B681B689B6837
:104FC80003F04003002B31D0786800F0BEFB7B680B
:104FD8001B689B6803F04003002B23D07B681B6889
:104FE8007A681268926822F040029A607B685B6E69
:104FF800002B13D07B685B6E2F4A5A637B685B6E0D
:105008001846FBF75EFA0346002B16D07B685B6EEA
:105018005B6B7A68526E104698470EE0786800F02D
:1050280057F80AE0786800F053F806E0786800F06E
:105038004FF87B680022DA6639E000BF37E07B6909
:1050480003F48013002B15D0BB6803F48003002BF6
:1050580010D07B681B684FF480121A627B6820228C
:1050680083F869207B68202283F86A20786800F03A
:105078007AFC1DE07B6903F08003002B08D03B69B4
:1050880003F08003002B03D0786800F092FB0FE058
:105098007B6903F04003002B0AD03B6903F040030F
:1050A800002B05D0786800F0DCFB00BF00E000BFF3
:1050B8001837BD4680BD00BF8F57000880B483B045
:1050C80000AF786000BF0C37BD465DF8047B7047C1
:1050D80080B483B000AF786000BF0C37BD465DF880
:1050E800047B704790B587B000AF78600023FB6001
:1050F8001023FB7500237B810023BB820023FB74F4
:105108007B689A687B681B691A437B685B691A43EA
:105118007B68DB691343FB607B681A687B681B68E4
:105128001B6823F4164323F00C03F9680B43136040
:105138007B681B687A681268526822F440517A6862
:10514800D2680A435A607B689A697B681B6A134372
:10515800FB607B681B687A681268926822F4306189
:10516800FA680A439A607B681B68B44A934221D163
:10517800B34B1B6B03F00303032B17D801A252F8A0
:1051880023F000BF9D510008A9510008AF51000845
:10519800A35100080123FB75B2E00223FB75AFE0C1
:1051A8000423FB75ACE00823FB75A9E01023FB750D
:1051B80000BFA5E07B681B68A24A934223D1A04B9D
:1051C8001B6B03F44033B3F5803F12D0B3F5803F37
:1051D80002D8002B07D012E0B3F5003F0CD0B3F58E
:1051E800403F03D00BE00023FB7589E00223FB75E9
:1051F80086E00423FB7583E00823FB7580E0102319
:10520800FB7500BF7CE07B681B688F4A934223D103
:105218008B4B1B6B03F44023B3F5802F12D0B3F5EF
:10522800802F02D8002B07D012E0B3F5002F0CD046
:10523800B3F5402F03D00BE00023FB7560E0022399
:10524800FB755DE00423FB755AE00823FB7557E006
:105258001023FB7500BF53E07B681B687B4A9342B1
:1052680023D1774B1B6B03F44013B3F5801F12D087
:10527800B3F5801F02D8002B07D012E0B3F5001F4A
:105288000CD0B3F5401F03D00BE00023FB7537E0CB
:105298000223FB7534E00423FB7531E00823FB751A
:1052A8002EE01023FB7500BF2AE07B681B68684A64
:1052B800934223D1624B1B6B03F44003B3F5800F79
:1052C80012D0B3F5800F02D8002B07D012E0B3F547
:1052D800000F0CD0B3F5400F03D00BE00023FB7593
:1052E8000EE00223FB750BE00423FB7508E008239E
:1052F800FB7505E01023FB7500BF01E01023FB756B
:105308007B68DB69B3F5004F6FD1FB7D082B57D85D
:1053180001A252F823F000BF45530008615300086A
:105328007D530008C953000897530008C953000863
:10533800C9530008C9530008B3530008FDF7E2FF3A
:1053480003465A007B685B685B081A447B685B68A5
:10535800B2FBF3F3BB8236E0FDF7F6FF03465A00D3
:105368007B685B685B081A447B685B68B2FBF3F395
:10537800BB8228E07B685B685B0803F5740303F570
:1053880010537A685268B3FBF2F3BB821BE0FDF757
:1053980043FF03465A007B685B685B081A447B68D6
:1053A8005B68B2FBF3F3BB820DE07B685B685B086C
:1053B80003F580327B685B68B2FBF3F3BB8202E0E3
:1053C8000123FB7400BFBB8A23F00F037B81BB8AD8
:1053D8005B109BB203F007039AB27B8913437B816E
:1053E8007B681B687A89DA6075E0FB7D082B6FD8CB
:1053F80001A252F823F000BF255400085D540008AC
:105408007D540008D95400089D540008D954000858
:10541800D9540008D9540008BD5400087B681C689A
:10542800FDF770FF02467B685B685B081A447B687F
:105438005B68B2FBF3F39BB2E3604CE000380140D9
:10544800001002400044004000480040004C00406A
:10545800005000407B681C68FDF776FF02467B68B9
:105468005B685B081A447B685B68B2FBF3F39BB22A
:10547800E36030E07B681A687B685B685B0803F56B
:10548800F40303F5905379684968B3FBF1F39BB2D1
:10549800D36020E07B681C68FDF7BEFE02467B688F
:1054A8005B685B081A447B685B68B2FBF3F39BB2EA
:1054B800E36010E07B681B687A685268520802F55E
:1054C80000417A685268B1FBF2F292B2DA6002E007
:1054D8000123FB7400BFFB7C18461C37BD4690BDFA
:1054E80080B483B000AF78607B685B6A03F0010327
:1054F800002B0AD07B681B687A681268526822F40D
:1055080000317A68926A0A435A607B685B6A03F0E2
:105518000203002B0AD07B681B687A6812685268FD
:1055280022F480317A68D26A0A435A607B685B6ADF
:1055380003F00403002B0AD07B681B687A681268A2
:10554800526822F480217A68126B0A435A607B6899
:105558005B6A03F00803002B0AD07B681B687A6833
:105568001268526822F400417A68526B0A435A6002
:105578007B685B6A03F01003002B0AD07B681B680A
:105588007A681268926822F480517A68926B0A43AA
:105598009A607B685B6A03F02003002B0AD07B6863
:1055A8001B687A681268926822F400517A68D26B94
:1055B8000A439A607B685B6A03F04003002B1AD0A9
:1055C8007B681B687A681268526822F480117A68CE
:1055D800126C0A435A607B681B6CB3F5801F0AD1B2
:1055E8007B681B687A681268526822F4C0017A687E
:1055F800526C0A435A607B685B6A03F08003002B95
:105608000AD07B681B687A681268526822F4002105
:105618007A68926C0A435A6000BF0C37BD465DF841
:10562800047B704780B586B002AF78600023FB60CA
:105638007B680022DA66FAF703FEF8607B681B686D
:105648001B6803F00803082B0ED16FF07E4300930C
:10565800FB6800224FF40011786800F02CF803462C
:10566800002B01D0032322E07B681B681B6803F032
:105678000403042B0ED16FF07E430093FB680022D5
:105688004FF48001786800F016F80346002B01D02B
:1056980003230CE07B68202283F869207B682022A2
:1056A80083F86A207B68002283F868200023184664
:1056B8001037BD4680BD80B584B000AFF860B960D2
:1056C8003B601346FB712CE0BB69B3F1FF3F28D068
:1056D800BB69002B07D0FAF7B3FD02463B68D21A24
:1056E800BB699A421DD9FB681B68FA681268126880
:1056F80022F4D0721A60FB681B68FA681268926814
:1057080022F001029A60FB68202283F86920FB6876
:10571800202283F86A20FB68002283F8682003238C
:105728000FE0FB681B68DA69BB681A40BB689A42DD
:105738000CBF01230023DBB21A46FB799A42C3D07F
:10574800002318461037BD4680BD80B483B000AF33
:1057580078607B681B687A681268126822F4907215
:105768001A607B681B687A681268926822F00102E6
:105778009A607B68202283F86A2000BF0C37BD46F8
:105788005DF8047B704780B584B000AF78607B68B3
:105798005B6AFB60FB680022A3F85A20FB680022C2
:1057A800A3F85220F868FFF793FC00BF1037BD46F6
:1057B80080BD80B485B000AF78607B6893F86930AD
:1057C800DBB2212B46D17B68B3F852309BB2002B59
:1057D80011D17B681B687A681268126822F080020F
:1057E8001A607B681B687A681268126842F0400287
:1057F8001A6000232FE07B689B68B3F5805F14D1A3
:105808007B681B69002B10D17B68DB6CFB607B68B5
:105818001B68FA681288C2F3080292B21A857B687C
:10582800DB6C9A1C7B68DA6409E07B681A687B6821
:10583800DB6C581C7968C8641B789BB213857B683D
:10584800B3F852309BB2013B9AB27B68A3F852205E
:10585800002300E0022318461437BD465DF8047B98
:10586800704780B582B000AF78607B681B687A6843
:105878001268126822F040021A607B68202283F8BE
:1058880069207868FFF71AFC002318460837BD46D8
:1058980080BD80B584B000AF78607B68B3F85C30B9
:1058A800FB817B6893F86A30DBB2222B4ED17B6890
:1058B8001B689B8CBB817B689B68B3F5805F12D1AA
:1058C8007B681B69002B0ED17B685B6DBB60BA8956
:1058D800FB8913409AB2BB681A807B685B6D9A1C7F
:1058E8007B685A650BE07B685B6D591C7A6851656B
:1058F800BA89D1B2FA89D2B20A40D2B21A707B6898
:10590800B3F85A309BB2013B9BB27A681946A2F8A9
:105918005A10002B18D17B681B687A6812681268C5
:1059280022F490721A607B681B687A681268926821
:1059380022F001029A607B68202283F86A20786846
:1059480000F0A8F900230AE0002308E07B681B6840
:105958007A681268926942F008029A61022318462E
:105968001037BD4680BD80B483B000AF786000BFFB
:105978000C37BD465DF8047B7047000080B500AF6A
:105988001E4B1F4A1A601D4B1E4A5A601B4B0022B1
:105998009A601A4B0122DA60184B00221A61174BE1
:1059A80000225A61154B00229A61144B0022DA61D9
:1059B800124B00221A621148FAF76AFF0346002BBD
:1059C80003D04021104800F0EDFD00210B48FCF702
:1059D800FFFA0346002B03D047210B4800F0E2FDF5
:1059E80000210648FCF73FFB0346002B03D04E215D
:1059F800054800F0D7FD00BF80BD00BF8C00002027
:105A0800005400405D3E30008469000880B588B0CD
:105A180000AF78607B681B68194A93422BD1C0237A
:105A2800FB6012233B6101237B610323BB610423D9
:105A3800FB6107F10C0319461248FAF781FD124A77
:105A4800114BDB6943F40013D3610F4BDB6903F49B
:105A58000013BB60BB68002200211F20FAF7D1FCAD
:105A68001F20FAF7EAFC002200212020FAF7C9FCDF
:105A78002020FAF7E2FC00BF2037BD4680BD00BFFA
:105A880000540040000400480010024080B485B073
:105A980000AF78600023FB6002E0FB680133FB6025
:105AA800FA687B689A42F8D300BF1437BD465DF8A0
:105AB800047B704780B584B000AF0346FB710022B9
:105AC80008211E48FAF7BAFE00BF1D48FEF714FB6E
